{
  "_format": "hh3-artifact-1",
  "contractName": "BnbCapital",
  "sourceName": "contracts/BnbCapital.sol",
  "abi": [
    {
      "inputs": [],
      "stateMutability": "nonpayable",
      "type": "constructor"
    },
    {
      "anonymous": false,
      "inputs": [
        {
          "indexed": true,
          "internalType": "address",
          "name": "user",
          "type": "address"
        },
        {
          "indexed": false,
          "internalType": "uint256",
          "name": "slot",
          "type": "uint256"
        },
        {
          "indexed": false,
          "internalType": "uint256",
          "name": "amount",
          "type": "uint256"
        }
      ],
      "name": "DepositFinished",
      "type": "event"
    },
    {
      "anonymous": false,
      "inputs": [
        {
          "indexed": true,
          "internalType": "address",
          "name": "recipient",
          "type": "address"
        },
        {
          "indexed": false,
          "internalType": "uint256",
          "name": "amount",
          "type": "uint256"
        }
      ],
      "name": "FeePaid",
      "type": "event"
    },
    {
      "anonymous": false,
      "inputs": [
        {
          "indexed": true,
          "internalType": "address",
          "name": "user",
          "type": "address"
        },
        {
          "indexed": false,
          "internalType": "uint256",
          "name": "amount",
          "type": "uint256"
        },
        {
          "indexed": false,
          "internalType": "uint256",
          "name": "plan",
          "type": "uint256"
        },
        {
          "indexed": false,
          "internalType": "uint256",
          "name": "slot",
          "type": "uint256"
        }
      ],
      "name": "NewDeposit",
      "type": "event"
    },
    {
      "anonymous": false,
      "inputs": [
        {
          "indexed": true,
          "internalType": "address",
          "name": "referrer",
          "type": "address"
        },
        {
          "indexed": true,
          "internalType": "address",
          "name": "referral",
          "type": "address"
        },
        {
          "indexed": true,
          "internalType": "uint256",
          "name": "level",
          "type": "uint256"
        },
        {
          "indexed": false,
          "internalType": "uint256",
          "name": "amount",
          "type": "uint256"
        }
      ],
      "name": "RefBonus",
      "type": "event"
    },
    {
      "anonymous": false,
      "inputs": [
        {
          "indexed": true,
          "internalType": "address",
          "name": "user",
          "type": "address"
        },
        {
          "indexed": false,
          "internalType": "uint256",
          "name": "amount",
          "type": "uint256"
        }
      ],
      "name": "Withdrawn",
      "type": "event"
    },
    {
      "inputs": [],
      "name": "BASE_PERCENT",
      "outputs": [
        {
          "internalType": "uint256",
          "name": "",
          "type": "uint256"
        }
      ],
      "stateMutability": "view",
      "type": "function"
    },
    {
      "inputs": [],
      "name": "INVEST_MIN_AMOUNT",
      "outputs": [
        {
          "internalType": "uint256",
          "name": "",
          "type": "uint256"
        }
      ],
      "stateMutability": "view",
      "type": "function"
    },
    {
      "inputs": [],
      "name": "MAX_DEPOSITS",
      "outputs": [
        {
          "internalType": "uint256",
          "name": "",
          "type": "uint256"
        }
      ],
      "stateMutability": "view",
      "type": "function"
    },
    {
      "inputs": [],
      "name": "PERCENTS_DIVIDER",
      "outputs": [
        {
          "internalType": "uint256",
          "name": "",
          "type": "uint256"
        }
      ],
      "stateMutability": "view",
      "type": "function"
    },
    {
      "inputs": [],
      "name": "PLAN_INCREMENT",
      "outputs": [
        {
          "internalType": "uint256",
          "name": "",
          "type": "uint256"
        }
      ],
      "stateMutability": "view",
      "type": "function"
    },
    {
      "inputs": [],
      "name": "PLATFORM_FEE",
      "outputs": [
        {
          "internalType": "uint256",
          "name": "",
          "type": "uint256"
        }
      ],
      "stateMutability": "view",
      "type": "function"
    },
    {
      "inputs": [
        {
          "internalType": "uint256",
          "name": "",
          "type": "uint256"
        }
      ],
      "name": "REFERRAL_PERCENTS",
      "outputs": [
        {
          "internalType": "uint256",
          "name": "",
          "type": "uint256"
        }
      ],
      "stateMutability": "view",
      "type": "function"
    },
    {
      "inputs": [],
      "name": "TIME_STEP",
      "outputs": [
        {
          "internalType": "uint256",
          "name": "",
          "type": "uint256"
        }
      ],
      "stateMutability": "view",
      "type": "function"
    },
    {
      "inputs": [
        {
          "internalType": "address",
          "name": "_user",
          "type": "address"
        }
      ],
      "name": "canWithdraw",
      "outputs": [
        {
          "internalType": "bool",
          "name": "",
          "type": "bool"
        }
      ],
      "stateMutability": "view",
      "type": "function"
    },
    {
      "inputs": [],
      "name": "contractInfo",
      "outputs": [
        {
          "internalType": "uint256",
          "name": "invested",
          "type": "uint256"
        },
        {
          "internalType": "uint256",
          "name": "withdrawn",
          "type": "uint256"
        },
        {
          "internalType": "uint256",
          "name": "referralPaid",
          "type": "uint256"
        },
        {
          "internalType": "uint256",
          "name": "userCount",
          "type": "uint256"
        },
        {
          "internalType": "uint256",
          "name": "balance",
          "type": "uint256"
        },
        {
          "internalType": "uint256",
          "name": "feesPaid",
          "type": "uint256"
        }
      ],
      "stateMutability": "view",
      "type": "function"
    },
    {
      "inputs": [
        {
          "internalType": "uint256",
          "name": "_days",
          "type": "uint256"
        },
        {
          "internalType": "address",
          "name": "_referrer",
          "type": "address"
        }
      ],
      "name": "deposit",
      "outputs": [],
      "stateMutability": "payable",
      "type": "function"
    },
    {
      "inputs": [],
      "name": "feeWallet",
      "outputs": [
        {
          "internalType": "address payable",
          "name": "",
          "type": "address"
        }
      ],
      "stateMutability": "view",
      "type": "function"
    },
    {
      "inputs": [
        {
          "internalType": "address",
          "name": "_user",
          "type": "address"
        }
      ],
      "name": "getNextWithdrawTime",
      "outputs": [
        {
          "internalType": "uint256",
          "name": "",
          "type": "uint256"
        }
      ],
      "stateMutability": "view",
      "type": "function"
    },
    {
      "inputs": [
        {
          "internalType": "uint256",
          "name": "_plan",
          "type": "uint256"
        }
      ],
      "name": "getPercent",
      "outputs": [
        {
          "internalType": "uint256",
          "name": "",
          "type": "uint256"
        }
      ],
      "stateMutability": "pure",
      "type": "function"
    },
    {
      "inputs": [
        {
          "internalType": "address",
          "name": "_user",
          "type": "address"
        }
      ],
      "name": "getUserActiveDeposits",
      "outputs": [
        {
          "internalType": "uint256",
          "name": "",
          "type": "uint256"
        }
      ],
      "stateMutability": "view",
      "type": "function"
    },
    {
      "inputs": [
        {
          "internalType": "address",
          "name": "_user",
          "type": "address"
        }
      ],
      "name": "getUserDeposits",
      "outputs": [
        {
          "internalType": "uint256[]",
          "name": "amounts",
          "type": "uint256[]"
        },
        {
          "internalType": "uint256[]",
          "name": "starts",
          "type": "uint256[]"
        },
        {
          "internalType": "uint256[]",
          "name": "checkpoints",
          "type": "uint256[]"
        },
        {
          "internalType": "uint256[]",
          "name": "plans",
          "type": "uint256[]"
        },
        {
          "internalType": "uint256[]",
          "name": "finishes",
          "type": "uint256[]"
        },
        {
          "internalType": "bool[]",
          "name": "actives",
          "type": "bool[]"
        }
      ],
      "stateMutability": "view",
      "type": "function"
    },
    {
      "inputs": [
        {
          "internalType": "address",
          "name": "_user",
          "type": "address"
        }
      ],
      "name": "getUserDividends",
      "outputs": [
        {
          "internalType": "uint256",
          "name": "",
          "type": "uint256"
        }
      ],
      "stateMutability": "view",
      "type": "function"
    },
    {
      "inputs": [
        {
          "internalType": "address",
          "name": "_user",
          "type": "address"
        }
      ],
      "name": "getUserTotalDeposited",
      "outputs": [
        {
          "internalType": "uint256",
          "name": "",
          "type": "uint256"
        }
      ],
      "stateMutability": "view",
      "type": "function"
    },
    {
      "inputs": [],
      "name": "totalFeesPaid",
      "outputs": [
        {
          "internalType": "uint256",
          "name": "",
          "type": "uint256"
        }
      ],
      "stateMutability": "view",
      "type": "function"
    },
    {
      "inputs": [],
      "name": "totalInvested",
      "outputs": [
        {
          "internalType": "uint256",
          "name": "",
          "type": "uint256"
        }
      ],
      "stateMutability": "view",
      "type": "function"
    },
    {
      "inputs": [],
      "name": "totalReferralPaid",
      "outputs": [
        {
          "internalType": "uint256",
          "name": "",
          "type": "uint256"
        }
      ],
      "stateMutability": "view",
      "type": "function"
    },
    {
      "inputs": [],
      "name": "totalUsers",
      "outputs": [
        {
          "internalType": "uint256",
          "name": "",
          "type": "uint256"
        }
      ],
      "stateMutability": "view",
      "type": "function"
    },
    {
      "inputs": [],
      "name": "totalWithdrawn",
      "outputs": [
        {
          "internalType": "uint256",
          "name": "",
          "type": "uint256"
        }
      ],
      "stateMutability": "view",
      "type": "function"
    },
    {
      "inputs": [
        {
          "internalType": "address",
          "name": "_user",
          "type": "address"
        }
      ],
      "name": "userInfo",
      "outputs": [
        {
          "internalType": "uint256",
          "name": "withdrawable",
          "type": "uint256"
        },
        {
          "internalType": "uint256",
          "name": "invested",
          "type": "uint256"
        },
        {
          "internalType": "uint256",
          "name": "withdrawn",
          "type": "uint256"
        },
        {
          "internalType": "uint256",
          "name": "referralBonus",
          "type": "uint256"
        },
        {
          "internalType": "uint256[5]",
          "name": "referralCount",
          "type": "uint256[5]"
        }
      ],
      "stateMutability": "view",
      "type": "function"
    },
    {
      "inputs": [
        {
          "internalType": "address",
          "name": "",
          "type": "address"
        }
      ],
      "name": "users",
      "outputs": [
        {
          "internalType": "uint256",
          "name": "depositCount",
          "type": "uint256"
        },
        {
          "internalType": "uint256",
          "name": "activeDepositCount",
          "type": "uint256"
        },
        {
          "internalType": "uint256",
          "name": "withdrawn",
          "type": "uint256"
        },
        {
          "internalType": "uint256",
          "name": "referralBonus",
          "type": "uint256"
        },
        {
          "internalType": "address",
          "name": "referrer",
          "type": "address"
        },
        {
          "internalType": "uint256",
          "name": "lastWithdrawTime",
          "type": "uint256"
        },
        {
          "internalType": "uint256",
          "name": "totalDeposited",
          "type": "uint256"
        }
      ],
      "stateMutability": "view",
      "type": "function"
    },
    {
      "inputs": [],
      "name": "withdraw",
      "outputs": [],
      "stateMutability": "nonpayable",
      "type": "function"
    }
  ],
  "bytecode": "0x600160008190556101206040526101f4608090815261012c60a05260c860c052606460e052603261010052620000389190600562000052565b503480156200004657600080fd5b506001600055620000bf565b82805482825590600052602060002090810192821562000096579160200282015b8281111562000096578251829061ffff1690559160200191906001019062000073565b50620000a4929150620000a8565b5090565b5b80821115620000a45760008155600101620000a9565b611a2580620000cf6000396000f3fe6080604052600436106101815760003560e01c806362f3765e116100d1578063c691b5441161008a578063e262113e11610064578063e262113e146104f8578063e7611fa114610513578063e9fd586214610533578063f25f4b561461054957600080fd5b8063c691b54414610489578063d4123d5f146104a9578063de1b9052146104e357600080fd5b806362f3765e146103515780636e553f65146103665780637c59948614610379578063a87430ba1461038f578063bff1f9e114610439578063c285c8c91461044f57600080fd5b806332bc298c1161013e57806344328f761161011857806344328f76146102f05780634b319713146103055780635216aeec1461031b578063600d20ce1461033157600080fd5b806332bc298c146102ac57806334fbc9a1146102c35780633ccfd60b146102d957600080fd5b806301c234a814610186578063040a772e146101af57806315c43aaf146101cf57806319262d30146102195780631959a002146102495780632a5bf6d21461027a575b600080fd5b34801561019257600080fd5b5061019c61271081565b6040519081526020015b60405180910390f35b3480156101bb57600080fd5b5061019c6101ca366004611798565b610589565b3480156101db57600080fd5b5060025460035460045460055460065460408051958652602086019490945292840191909152606083015247608083015260a082015260c0016101a6565b34801561022557600080fd5b50610239610234366004611798565b6106be565b60405190151581526020016101a6565b34801561025557600080fd5b50610269610264366004611798565b610705565b6040516101a69594939291906117b3565b34801561028657600080fd5b5061029a610295366004611798565b610806565b6040516101a696959493929190611840565b3480156102b857600080fd5b5061019c6201518081565b3480156102cf57600080fd5b5061019c6103e881565b3480156102e557600080fd5b506102ee610b67565b005b3480156102fc57600080fd5b5061019c600581565b34801561031157600080fd5b5061019c60035481565b34801561032757600080fd5b5061019c60025481565b34801561033d57600080fd5b5061019c61034c3660046118ea565b610f35565b34801561035d57600080fd5b5061019c607781565b6102ee610374366004611903565b610f56565b34801561038557600080fd5b5061019c60045481565b34801561039b57600080fd5b506103fb6103aa366004611798565b600760205260009081526040902061025881015461025982015461025a83015461025b84015461025c8501546102628601546102639096015494959394929391926001600160a01b03909116919087565b6040805197885260208801969096529486019390935260608501919091526001600160a01b0316608084015260a083015260c082015260e0016101a6565b34801561044557600080fd5b5061019c60055481565b34801561045b57600080fd5b5061019c61046a366004611798565b6001600160a01b03166000908152600760205260409020610259015490565b34801561049557600080fd5b5061019c6104a4366004611798565b6116ba565b3480156104b557600080fd5b5061019c6104c4366004611798565b6001600160a01b03166000908152600760205260409020610263015490565b3480156104ef57600080fd5b5061019c606481565b34801561050457600080fd5b5061019c662386f26fc1000081565b34801561051f57600080fd5b5061019c61052e3660046118ea565b611712565b34801561053f57600080fd5b5061019c60065481565b34801561055557600080fd5b50610571737564639e38c51a5b8be4057eb20a74876188092f81565b6040516001600160a01b0390911681526020016101a6565b6001600160a01b038116600090815260076020526040812081805b60648110156106a55760008181526102648401602052604090205460ff16156106935760008382606481106105db576105db61192f565b6006020190508060050160009054906101000a900460ff166105fd5750610693565b60028101546004820154600090421061061a57826004015461061c565b425b90508082101561068f576000610632838361195b565b905060006106438560030154611712565b90506000620151806127108484896000015461065f9190611974565b6106699190611974565b610673919061198b565b61067d919061198b565b905061068981896119ad565b97505050505b5050505b8061069d816119c0565b9150506105a4565b5061025b8201546106b690826119ad565b949350505050565b6001600160a01b03811660009081526007602052604081206102628101546106e890610e106119ad565b421180156106fe575060006106fc84610589565b115b9392505050565b60008060008061071361175e565b6001600160a01b038616600090815260076020526040902061073487610589565b955060005b60648110156107b75760008181526102648301602052604090205460ff16801561077c57508181606481106107705761077061192f565b600602016005015460ff165b156107a5578181606481106107935761079361192f565b60060201546107a290876119ad565b95505b806107af816119c0565b915050610739565b5061025a81015461025b8201546040805160a081019182905292965090945061025d83019060059082845b8154815260200190600101908083116107e257505050505091505091939590929450565b6001600160a01b03811660009081526007602052604081206060918291829182918291829190805b60648110156108715760008181526102648401602052604090205460ff161561085f578161085b816119c0565b9250505b80610869816119c0565b91505061082e565b508067ffffffffffffffff81111561088b5761088b6119d9565b6040519080825280602002602001820160405280156108b4578160200160208202803683370190505b5097508067ffffffffffffffff8111156108d0576108d06119d9565b6040519080825280602002602001820160405280156108f9578160200160208202803683370190505b5096508067ffffffffffffffff811115610915576109156119d9565b60405190808252806020026020018201604052801561093e578160200160208202803683370190505b5095508067ffffffffffffffff81111561095a5761095a6119d9565b604051908082528060200260200182016040528015610983578160200160208202803683370190505b5094508067ffffffffffffffff81111561099f5761099f6119d9565b6040519080825280602002602001820160405280156109c8578160200160208202803683370190505b5093508067ffffffffffffffff8111156109e4576109e46119d9565b604051908082528060200260200182016040528015610a0d578160200160208202803683370190505b5092506000805b606481108015610a2357508282105b15610b5a5760008181526102648501602052604090205460ff1615610b48576000848260648110610a5657610a5661192f565b60060201905080600001548b8481518110610a7357610a7361192f565b60200260200101818152505080600101548a8481518110610a9657610a9661192f565b6020026020010181815250508060020154898481518110610ab957610ab961192f565b6020026020010181815250508060030154888481518110610adc57610adc61192f565b6020026020010181815250508060040154878481518110610aff57610aff61192f565b60209081029190910101526005810154865160ff90911690879085908110610b2957610b2961192f565b9115156020928302919091019091015282610b43816119c0565b935050505b80610b52816119c0565b915050610a14565b5050505091939550919395565b600260005403610bbe5760405162461bcd60e51b815260206004820152601f60248201527f5265656e7472616e637947756172643a207265656e7472616e742063616c6c0060448201526064015b60405180910390fd5b60026000908155338152600760205260409020610262810154610be390610e106119ad565b4211610c315760405162461bcd60e51b815260206004820152601a60248201527f5769746864726177616c20636f6f6c646f776e206163746976650000000000006044820152606401610bb5565b610259810154600090819081805b606481108015610c4e57508282105b15610db2576000868260648110610c6757610c6761192f565b6006020190508060050160009054906101000a900460ff16610c895750610da0565b82610c93816119c0565b935050600081600201549050600082600401544210610cb6578260040154610cb8565b425b905080821015610d9c576000610cce838361195b565b90506000610cdf8560030154611712565b905060006201518061271084848960000154610cfb9190611974565b610d059190611974565b610d0f919061198b565b610d19919061198b565b6002870185905560048701549091508410610d8c5760058601805460ff1916905589610d44816119c0565b8754604051919c503392507f6575db2ae2ddc8162f150204e1787378f17abcc70af1db8cc9b59c2bc1beb79c91610d83918b8252602082015260400190565b60405180910390a25b610d96818c6119ad565b9a505050505b5050505b80610daa816119c0565b915050610c3f565b508215610e1e57828561025901541015610e065760405162461bcd60e51b8152602060048201526015602482015274082c6e8d2ecca40c6deeadce840dad2e6dac2e8c6d605b1b6044820152606401610bb5565b82856102590154610e17919061195b565b6102598601555b61025b8501548015610e3f57600061025b870155610e3c81866119ad565b94505b60008511610e885760405162461bcd60e51b81526020600482015260166024820152754e6f206469766964656e647320617661696c61626c6560501b6044820152606401610bb5565b4780861115610e95578095505b858761025a0154610ea691906119ad565b61025a88015542610262880155600354610ec19087906119ad565b600355604051339087156108fc029088906000818181858888f19350505050158015610ef1573d6000803e3d6000fd5b5060405186815233907f7084f5476618d8e60b11ef0d7d3f06914655adb8793e28ff7f018d4c76d505d59060200160405180910390a2505060016000555050505050565b60018181548110610f4557600080fd5b600091825260209091200154905081565b600260005403610fa85760405162461bcd60e51b815260206004820152601f60248201527f5265656e7472616e637947756172643a207265656e7472616e742063616c6c006044820152606401610bb5565b6002600055662386f26fc100003410156110045760405162461bcd60e51b815260206004820152601a60248201527f4d696e696d756d20696e766573746d656e74206e6f74206d65740000000000006044820152606401610bb5565b600782101580156110165750601e8211155b61107a5760405162461bcd60e51b815260206004820152602f60248201527f496e766573746d656e7420706572696f64206d7573742062652062657477656560448201526e6e203720616e64203330206461797360881b6064820152608401610bb5565b3360009081526007602052604090206102598101546064116110de5760405162461bcd60e51b815260206004820152601f60248201527f4d6178696d756d20616374697665206465706f736974732072656163686564006044820152606401610bb5565b6001600160a01b038216158015906110ff57506001600160a01b0382163314155b801561112657506001600160a01b0382166000908152600760205260409020610263015415155b156111fd5761025c8101546001600160a01b03166111fd5761025c810180546001600160a01b0319166001600160a01b03841690811790915560005b6001548110156111fa576001600160a01b038216156111e3576001600160a01b038216600090815260076020526040902061025d0181600581106111a8576111a861192f565b0180549060006111b7836119c0565b90915550506001600160a01b03918216600090815260076020526040902061025c0154909116906111e8565b6111fa565b806111f2816119c0565b915050611162565b50505b61025c8101546001600160a01b0316156113515761025c8101546001600160a01b031660005b60015481101561134e576001600160a01b03821615611337576000612710600183815481106112545761125461192f565b90600052602060002001543461126a9190611974565b611274919061198b565b6001600160a01b038416600090815260076020526040902061025b015490915061129f9082906119ad565b6001600160a01b038416600090815260076020526040902061025b01556004546112ca9082906119ad565b600455604051818152829033906001600160a01b038616907fd41f7e766eebcc7ff42b11ac8691bdf864db4afc0c55e71d629d54edce460d989060200160405180910390a4506001600160a01b03918216600090815260076020526040902061025c01549091169061133c565b61134e565b80611346816119c0565b915050611223565b50505b806102630154600003611374576005805490600061136e836119c0565b91905055505b606460005b60648110156113dc5760008181526102648401602052604090205460ff1615806113bd57508281606481106113b0576113b061192f565b600602016005015460ff16155b156113ca578091506113dc565b806113d4816119c0565b915050611379565b506064811061142d5760405162461bcd60e51b815260206004820152601a60248201527f4e6f20617661696c61626c65206465706f73697420736c6f74730000000000006044820152606401610bb5565b6040518060c00160405280348152602001428152602001428152602001858152602001620151808661145f9190611974565b61146990426119ad565b815260016020909101528282606481106114855761148561192f565b82516006919091029190910190815560208083015160018301556040808401516002840155606084015160038401556080840151600484015560a0909301516005909201805460ff19169215159290921790915560008381526102648501909152205460ff16611522576000818152610264830160205260408120805460ff19166001179055610258830180549161151c836119c0565b91905055505b61025982018054906000611535836119c0565b91905055503482610263015461154b91906119ad565b61026383015560006127106115626103e834611974565b61156c919061198b565b9050804710156115be5760405162461bcd60e51b815260206004820152601c60248201527f496e73756666696369656e742062616c616e636520666f7220666565000000006044820152606401610bb5565b604051737564639e38c51a5b8be4057eb20a74876188092f9082156108fc029083906000818181858888f193505050501580156115ff573d6000803e3d6000fd5b508060065461160e91906119ad565b60065560025461161f9034906119ad565b600255604080513481526020810187905290810183905233907f632498135bdb1c11bee743dc04f2ffc8ae33cd6fb3d25fe0941ae402b068fda89060600160405180910390a2604051818152737564639e38c51a5b8be4057eb20a74876188092f907f075a2720282fdf622141dae0b048ef90a21a7e57c134c76912d19d006b3b3f6f9060200160405180910390a250506001600055505050565b6001600160a01b03811660009081526007602052604081206102628101546116e490610e106119ad565b4211156116f45750600092915050565b42816102620154610e1061170891906119ad565b6106fe919061195b565b600080600561172260078561195b565b61172c9190611974565b6117379060776119ad565b9050600060648461174a61271085611974565b611754919061198b565b6106b6919061198b565b6040518060a001604052806005906020820280368337509192915050565b80356001600160a01b038116811461179357600080fd5b919050565b6000602082840312156117aa57600080fd5b6106fe8261177c565b60006101208201905086825260208681840152856040840152846060840152608083018460005b60058110156117f7578151835291830191908301906001016117da565b505050509695505050505050565b600081518084526020808501945080840160005b8381101561183557815187529582019590820190600101611819565b509495945050505050565b60c08152600061185360c0830189611805565b602083820381850152611866828a611805565b9150838203604085015261187a8289611805565b9150838203606085015261188e8288611805565b915083820360808501526118a28287611805565b84810360a0860152855180825282870193509082019060005b818110156118d95784511515835293830193918301916001016118bb565b50909b9a5050505050505050505050565b6000602082840312156118fc57600080fd5b5035919050565b6000806040838503121561191657600080fd5b823591506119266020840161177c565b90509250929050565b634e487b7160e01b600052603260045260246000fd5b634e487b7160e01b600052601160045260246000fd5b8181038181111561196e5761196e611945565b92915050565b808202811582820484141761196e5761196e611945565b6000826119a857634e487b7160e01b600052601260045260246000fd5b500490565b8082018082111561196e5761196e611945565b6000600182016119d2576119d2611945565b5060010190565b634e487b7160e01b600052604160045260246000fdfea2646970667358221220d37a268db61d2d4c8f4b13f2859e76115a856b7093ace17b53a1c90e8fa1fd4164736f6c63430008130033",
  "linkReferences": {},
  "deployedLinkReferences": {},
  "immutableReferences": {},
  "inputSourceName": "project/contracts/BnbCapital.sol",
  "buildInfoId": "solc-0_8_19-7cbc7b87c1e2840f8ba5988db1e677b75a34cac6"
}